:100000000C9438010C9460010C946B0C0C946001FE
:100010000C94750C0C9460010C94FA0B0C94600118
:100020000C9460010C9460010C9460010C946001CC
:100030000C9460010C9460010C9460010C946001BC
:100040000C9460010C9460010C9460010C946001AC
:100050000C9460017E018101840187018A018D0178
:1000600090019301B901C001C701CE01D501DC01A6
:10007000E301EA01F1016B06C306C3066306C3068A
:10008000C30673067B0683068B0693069B06A306B0
:10009000AB06B306BB06C306C306C306C306C30648
:1000A000C306C306C306C306C306C306C306C30608
:1000B000C306C306C306C306C306C306C306C306F8
:1000C000C306C306C306C306C306C306C306C306E8
:1000D000C306C306C306C306C306C306C306C306D8
:1000E000C306C3063B06C306530603061B06C30628
:1000F0004306C3063306C306C3062B06C306FB0529
:10010000EB05F305C30623064B0613065B06C30681
:10011000C306C3060B06460767076707430767075B
:10012000670749074C074F075207550758075B07F2
:100130005E07610764076707670767076707670761
:10014000670767076707670767076707670767073F
:10015000670767076707670767076707670767072F
:10016000670767076707670767076707670767071F
:10017000670767076707670767076707670767070F
:1001800067076707390767073F072B0731076707C7
:100190003B076707370767076707350767072907BB
:1001A00025072707670733073D072F07410767071D
:1001B000670767072D07BA08BD08C308C608C00847
:1001C000C908CC08CF08E008F1080209130924097E
:1001D0003509EB0CA80F380DA80FA80F850DA80F37
:1001E000A80FA80FA80FA80FA80FA80FA80FA80F57
:1001F000A60DB00DBA0DC40DCE0DD80DE20DA80F91
:10020000A80FA80FA80FA80FA80FEC0DA80F390E64
:100210007B0EBD0EFF0E730F131038105E1084108E
:10022000AA10171148116E11791184119311A2119E
:10023000B111C011CF11DE11ED11FA110712141214
:1002400021122E123B1248125012581260126812DC
:1002500070127812E9129112A412B712CA12DF12A8
:1002600095047D08990CFC13A4058608B60C0114AE
:1002700011241FBECFE5D4E0DEBFCDBF12E0A0E663
:10028000B0E0E0EFF3E302C005900D92AE3FB1079E
:10029000D9F723E0AEEFB2E001C01D92AF3CB20748
:1002A000E1F711E0C4E3D1E004C02197FE010E9410
:1002B000CB19C033D107C9F70E94920A0C94EB19ED
:1002C0000C940000860F971FFC018081840F8A30F8
:1002D00020F4811103C089E0089581E00895860F1C
:1002E000971FDC01EC918E2F90E0FC013197E830F4
:1002F000F105E0F4E65DFF4F0C94CB1986EA92E03D
:1003000008958BEA92E0089580EB92E0089585EBE2
:1003100092E008958AEB92E008958FEB92E00895C1
:1003200084EC92E0089589EC92E0089581EA92E0ED
:1003300008958F929F92AF92BF92EF92FF920F9388
:100340001F9349015A0198018701DC01CB010197F4
:10035000A109B109FC01EC59FF4FE0818E2F90E01B
:100360008930910508F044C0FC01EE5CFF4F0C940D
:10037000CB19B501A4018DE693E00E9477093EC038
:10038000B501A40181E693E00E94770937C0B50169
:10039000A40185E593E00E94770930C0B501A4016E
:1003A00089E493E00E94770929C0B501A4018DE397
:1003B00093E00E94770922C0B501A40181E393E094
:1003C0000E9477091BC0B501A40185E293E00E9459
:1003D000770914C0B501A40189E193E00E9477096F
:1003E0000DC0B501A4018DE093E00E94770906C01D
:1003F000B501A4018DE693E00E9477091F910F914A
:10040000FF90EF90BF90AF909F908F9008956F9264
:100410007F928F929F92AF92BF92CF92DF92EF9294
:10042000FF920F931F93CF93DF93CDB7DEB728973B
:100430000FB6F894DEBF0FBECDBF69837A838B837E
:100440009C83ED82FE820F831887998C8A8C7B8C2B
:100450006C8CCA01B901905829813A814B815C8129
:100460000E945E1969837A838B839C8320E030E04D
:1004700040EF51E4C801B7010E9495179B01AC0100
:1004800069817A818B819C810E949517F62E072FB6
:10049000182FE92E2A2D3B2D4C2D5D2D0E94591928
:1004A000181624F4FA2C0B2D1C2DED2C292D382D8B
:1004B000472D562D6F2D702F812F9E2D0E940118D4
:1004C000882324F4F92C082D172DE62C8091C403E1
:1004D000882321F0FA2C0B2D1C2DED2C6F2D702F65
:1004E000812F9E2D28960FB6F894DEBF0FBECDBF8C
:1004F000DF91CF911F910F91FF90EF90DF90CF9000
:10050000BF90AF909F908F907F906F9008954F9283
:100510005F926F927F92AF92BF92CF92DF92EF92F3
:10052000FF920F931F93CF93DF93CDB7DEB7609702
:100530000FB6F894DEBF0FBECDBF69837A838B837D
:100540009C8329013A01E986FA860B871C87209152
:100550006000309161004091620050916300C301DE
:10056000B2010E9494176D877E878F87988BA301B5
:10057000920169817A818B819C810E9494176983A1
:100580007A838B839C8320910403309105034091EF
:100590000603509107030E9495176D837E838F8316
:1005A00098876093040370930503809306039093E8
:1005B000070320E030E048EC52E4C801B7010E9494
:1005C000061829813A814B815C810E945E196983FA
:1005D0007A838B839C8320E030E048EC52E4C601B0
:1005E000B5010E9406189B01AC016D817E818F814F
:1005F00098850E945E199B01AC0169817A818B818B
:100600009C810E9495176B017C0120E030E048EC52
:1006100052E469A17AA18BA19CA10E9406182D85A4
:100620003E854F8558890E945E199B01AC01C70128
:10063000B6010E9494176B017C0120E030E048EC89
:1006400052E40E94591918169CF020E030E048EC62
:1006500052ECC701B6010E94011888238CF40F2EBA
:10066000C12CD12CF8ECEF2EF2ECFF2EF02D08C0AF
:100670000F2EC12CD12CF8ECEF2EF2E4FF2EF02D32
:10068000409260005092610060926200709263003C
:10069000C701B60160960FB6F894DEBF0FBECDBF9E
:1006A000DF91CF911F910F91FF90EF90DF90CF904E
:1006B000BF90AF907F906F905F904F900895DE98BD
:1006C000DF98D69AD79A0895DF98DE9AD69A089539
:1006D000CF92DF92EF92FF9269017A0120E030E041
:1006E00048EC52E40E940618A70196010E945E1988
:1006F00020910003309101034091020350910303C4
:100700000E9495176B017C0120E030E0A9010E9456
:100710000118811106C00E945F0360E070E0CB0108
:1007200051C020E030E0A901C701B6010E9459196B
:1007300018162CF520E030E04AE754E4C701B60172
:100740000E94591988236CF0109200031092010343
:1007500010920203109203030E946403C701B601C2
:1007600031C0C0920003D0920103E0920203F092E4
:1007700003030E945F0360E070E0CB0123C020E030
:1007800030E04AE754ECC701B6010E940118882303
:1007900064F410920003109201031092020310926D
:1007A0000303C701B60190580DC0C0920003D09258
:1007B0000103E0920203F09203030E945F0360E0F2
:1007C00070E0CB01FF90EF90DF90CF900895CF9233
:1007D000DF92EF92FF926B017C0120E030E0A901F3
:1007E0000E940118811103C00E945F032DC0C70140
:1007F000B6010E9478182091FE023091FF02261760
:10080000370731F010920C037093FF026093FE02E1
:100810008091FE029091FF020097B1F020910C03AD
:10082000211107C0E8E0F3E081E0848313821282A3
:100830000BC020910A0330910B032817390720F0D1
:1008400010920C030E945F03FF90EF90DF90CF9017
:100850000895CF93DF93EB01FC0111821082809108
:10086000F9029091FA02A091FB02B091FC02823051
:100870009105A105B10521F00597A105B10559F52F
:1008800080918D0290918E02A0918F02B091900282
:100890000897A105B105F9F48091890290918A0227
:1008A000A0918B02B0918C020A97A105B1059CF42E
:1008B00020919A0030919B0040919C0050919D00A6
:1008C00060E070E088EC92E40E94680368837983BA
:1008D0008A839B8312C020919A0030919B004091A3
:1008E0009C0050919D0060E070E088EC92EC0E94CA
:1008F0006803688379838A839B83DF91CF9108950E
:1009000064EB73E088E990E00E94290408950E9456
:10091000591988231CF00E948004089588EB9BE0FD
:10092000909399008093980008958F929F92AF9230
:10093000BF92CF92DF92EF92FF920F931F931F927D
:100940001F921F921F921F921F921F921F92812C23
:10095000912C5401C12CD12C760100EA15E020E045
:1009600030E040E050E0BA018DE693E00E944A0991
:100970001F921F921F921F921F921F921F921F92EF
:1009800000E010E0980140E050E0BA0181E693E019
:100990000E944A091F921F921F921F921F921F923C
:1009A0001F921F9208E215E020E030E044EA51E097
:1009B00060E070E085E593E00E944A091F921F9273
:1009C0001F921F921F921F921F921F920F2EF8E2EA
:1009D0008F2EF5E09F2EA12CB12CF02D0F2EFCEFC9
:1009E000CF2EF3E0DF2EE12CF12CF02D00EE11E004
:1009F00020E030E044EA51E060E070E089E493E018
:100A00000E944A098DB79EB780960FB6F8949EBF94
:100A10000FBE8DBF1F921F921F921F921F921F9297
:100A20001F921F9200EE11E020E030E044EA51E016
:100A300060E070E08DE393E00E944A091F921F92EC
:100A400085E08F9388E28F931F921F9283E08F93AC
:100A50008CEF8F930F2EFCE08F2EF3E09F2EA12CB6
:100A6000B12CF02D0F2EF0EDCF2EF2E0DF2EE12C89
:100A7000F12CF02D00EE11E020E030E044EA51E0EE
:100A800060E070E081E393E00E944A091F921F92A8
:100A90001F921F921F921F921F921F92812C912CC6
:100AA0005401C12CD12C760100EA15E020E030E0A1
:100AB00040E050E0BA0185E293E00E944A091F92AB
:100AC0001F921F921F921F921F921F921F9200EA65
:100AD00015E020E030E040E050E0BA0189E193E029
:100AE0000E944A098DB79EB780960FB6F8949EBFB4
:100AF0000FBE8DBF1F921F921F921F921F921F92B7
:100B00001F921F9200EA15E020E030E040E050E044
:100B1000BA018DE093E00E944A0988E093E00E94C8
:100B2000090A8DB79EB708960FB6F8949EBF0FBE00
:100B30008DBF1F910F91FF90EF90DF90CF90BF90EE
:100B4000AF909F908F90089588E093E00E94100AE4
:100B50008DE093E00E94760989E193E00E94760996
:100B600085E293E00E94760981E393E00E94760992
:100B70008DE393E00E94760989E493E00E94760970
:100B800085E593E00E94760981E693E00E9476096C
:100B90008DE693E00E94760908958FEF88BB87BBAE
:100BA00085B3807F85BB84B38F6084BBE6E8F3E0C8
:100BB00010821182128213820895DC01EC918E2F33
:100BC00090E0FC01BA97E035F10508F0DCC0E55C87
:100BD000FF4F0C94CB19E62FF0E080918500EB5786
:100BE000FC4F80830895E62FF0E080918600EB575C
:100BF000FC4F80830895E62FF0E080918700EB574B
:100C0000FC4F80830895E62FF0E080918800EB5739
:100C1000FC4F80830895E62FF0E080918900EB5728
:100C2000FC4F80830895E62FF0E080918A00EB5717
:100C3000FC4F80830895E62FF0E080918B00EB5706
:100C4000FC4F80830895E62FF0E080918C00EB57F5
:100C5000FC4F80830895E62FF0E080918D00EB57E4
:100C6000FC4F80830895E62FF0E080918E00EB57D3
:100C7000FC4F80830895E62FF0E080919000EB57C1
:100C8000FC4F80830895E62FF0E080919100EB57B0
:100C9000FC4F80830895E62FF0E080919200EB579F
:100CA000FC4F80830895E62FF0E080919300EB578E
:100CB000FC4F80830895E62FF0E080919400EB577D
:100CC000FC4F80830895E62FF0E080919500EB576C
:100CD000FC4F80830895E62FF0E080919600EB575B
:100CE000FC4F80830895E62FF0E080917B00EB5766
:100CF000FC4F80830895E62FF0E080917C00EB5755
:100D0000FC4F80830895E62FF0E080917D00EB5743
:100D1000FC4F80830895E62FF0E080917E00EB5732
:100D2000FC4F80830895E62FF0E080917F00EB5721
:100D3000FC4F80830895E62FF0E080918000EB5710
:100D4000FC4F80830895E62FF0E080918100EB57FF
:100D5000FC4F80830895E62FF0E080918200EB57EE
:100D6000FC4F80830895E62FF0E080918300EB57DD
:100D7000FC4F80830895E62FF0E080918400EB57CC
:100D8000FC4F80830895E62FF0E080918F00EB57B1
:100D9000FC4F808308952F923F924F925F926F9203
:100DA0007F928F929F92AF92BF92CF92DF92EF92FB
:100DB000FF920F931F93CF93DF93CDB7DEB7619769
:100DC0000FB6F894DEBF0FBECDBF19821A821B8208
:100DD0001C82EBE7F0E02284338484849584A6842B
:100DE000B784C088D188E288F38805891689778915
:100DF000508D418D228D2D83238D2E8320812F8335
:100E0000218128872281298723812A8724812B8792
:100E100025812C8726812D8727812E8720852F8766
:100E20002185288B2489298BDE0114969E01FC01E3
:100E30004190CF01512CF201BA97E035F10508F04D
:100E400046C0E557FF4F0C94CB192C9242C03C9200
:100E500040C08C923EC09C923CC0AC923AC0BC92C6
:100E600038C0CC9236C0DC9234C0EC9232C0FC92D6
:100E700030C00C932EC01C932CC07C932AC05C9372
:100E800028C04C9326C0FD81FC9323C0EE81EC93D7
:100E900020C0FF81FC931DC0E885EC931AC0F98542
:100EA000FC9317C0EA85EC9314C0FB85FC9311C03A
:100EB000EC85EC930EC0FD85FC930BC0EE85EC93A6
:100EC00008C0FF85FC9305C0E889EC9302C0F9894E
:100ED000FC931197A217B30709F0A9CF8FEF860FE4
:100EE000843030F4FE01E60FF11D8081806880833C
:100EF0008981E6E8F3E080838A8181838B81828324
:100F00008C81838361960FB6F894DEBF0FBECDBF90
:100F1000DF91CF911F910F91FF90EF90DF90CF90D5
:100F2000BF90AF909F908F907F906F905F904F9009
:100F30003F902F900895BF92CF92DF92EF92FF9251
:100F40000F931F93CF93DF9300D000D0CDB7DEB7C0
:100F50008C01B62E19821A821B821C82CE01019648
:100F60007C016E0195E0C90ED11C9801ADECBCEC82
:100F70000E94D119AC0156954795569547955695BF
:100F80004795CA01880F991F440F551F440F551FDD
:100F9000440F551F480F591FF801E41BF50BFF279D
:100FA000E558FF4F8081F70181937F010E94D1199D
:100FB0008C01169507951695079516950795EC15CE
:100FC000FD0599F68C8190917B00891314C0F4E0A3
:100FD000BF16A9F090918F009C832B8182130BC0C8
:100FE00023E0B21661F09B832A81821304C082E061
:100FF000B81629F09A838FEF8B0D843030F4FE0100
:10100000EB0DF11D8081806880838981E6E8F3E043
:1010100080838A8181838B8182838C8183830F90FB
:101020000F900F900F90DF91CF911F910F91FF9034
:10103000EF90DF90CF90BF90089518BA85B3807F6E
:1010400085BB08950E941D0880917A03811102C01A
:10105000AB9A09C0813011F4AA9A05C0823011F40C
:10106000A99A01C0A89AE0917A03F0E0EA57FC4FF0
:10107000808188BB80917A038F5F843019F08093E0
:101080007A03089510927A03089580917903882352
:10109000C9F080918403811107C0E0E8F3E081E0AA
:1010A0008483138212820BC0809182039091830308
:1010B000843F914020F010928403109279030E94A3
:1010C0002208089585B3807F85BB80917F038111BD
:1010D00007C0EBE7F3E081E0848313821282089576
:1010E00080917D0390917E038039914028F0109289
:1010F0007F0381E080937903089580E893E00E9464
:10110000090A8BE793E00E94090A08958BE793E0B0
:101110000E94100A80E893E00E94100A08950E943D
:10112000CD050E94D30C0E94800A0E9447160E949F
:10113000110A0E94EE120895AC98A49AAD98A59A4F
:10114000DC98D49ADB98D39A9098889A9198899A47
:1011500092988A9A0895CF93C82F0E949C088C2F4A
:1011600090E08E30910508F091C0FC01E552FF4FF0
:101170000C94CB19AC9AA49A8BC0AD9AA59A88C04E
:10118000DC9AD49A85C0DB9AD39A82C0909A889AC6
:101190007FC0919A899A7CC0929A8A9A79C08091EC
:1011A0009003811102C0AC9AA49A809190038F5F42
:1011B000843018F4809390036BC01092900368C041
:1011C00080918F03811102C0AD9AA59A80918F03FF
:1011D0008F5F843018F480938F035AC010928F036E
:1011E00057C080918E03811102C0DC9AD49A8091FD
:1011F0008E038F5F843018F480938E0349C0109261
:101200008E0346C080918D03811102C0DB9AD39A70
:1012100080918D038F5F843018F480938D0338C0E4
:1012200010928D0335C080918C03811102C0909A79
:10123000889A80918C038F5F843018F480938C039C
:1012400027C010928C0324C080918B03811102C0AF
:10125000919A899A80918B038F5F843018F48093E0
:101260008B0316C010928B0313C080918A038111E7
:1012700002C0929A8A9A80918A038F5F843018F410
:1012800080938A0305C010928A0302C00E949C08C2
:10129000CF9108958F929F92AF92BF92CF92DF929B
:1012A000EF92FF920F931F93CF93DF93CDB7DEB7EB
:1012B000FC015183408313830283D582C4829782C9
:1012C00086828F85988991878087AB89BC89B3870F
:1012D000A287DF91CF911F910F91FF90EF90DF9048
:1012E000CF90BF90AF909F908F90089508956F9288
:1012F0007F928F929F92AF92BF92CF92DF92EF92A6
:10130000FF920F931F93CF93DF93FC01842E952EB2
:10131000A62EB72E622E732EC5E8D2E02885398519
:101320004A855B85ACE3B0E00E94E019CC80DD80AB
:10133000EE80FF80DC01CB018C0D9D1DAE1DBF1D1D
:10134000C080D1800D2C000CEE08FF088C159D0587
:10135000AE05BF055CF0C280D3800D2C000CEE08FA
:10136000FF088C159D05AE05BF058CF1C480D580A6
:101370000D2C000CEE08FF088C159D05AE05BF0571
:101380005CF0C680D7800D2C000CEE08FF088C1591
:101390009D05AE05BF0504F1C084D1840D2C000C61
:1013A000EE08FF088C159D05AE05BF05D4F0C2847C
:1013B000D3840D2C000CEE08FF088C159D05AE059E
:1013C000BF0594F4082D192DDA2DCB2D0FC0082D53
:1013D000192DDA2DCB2D0AC0082D192DDA2DCB2D84
:1013E00005C0D62DC72D02C0D62DC72D602F712F59
:1013F0008D2F9C2FDF91CF911F910F91FF90EF9038
:10140000DF90CF90BF90AF909F908F907F906F9024
:101410000895FC01138212821182108214820895B1
:1014200008952FE78AE196E0215080409040E1F74F
:1014300000C0000082B5886082BD14BC85E085BD17
:1014400013BC82B58770E9F789B7806489BF789447
:10145000089541E068E282E00E946E1425B72F747F
:10146000206325BF2AE037ED43E250E40E945E1975
:1014700020E030E040E85AE30E945E1920E030E0CE
:1014800040E85FE30E94011888230CF038C00E94F6
:101490005F030E941D0889B78F7E89BF0E949C0848
:1014A0000E94EE13F89485B7806485BF7894889580
:1014B00085B78F7B85BF08C085B7806485BF78946A
:1014C000889585B78F7B85BF41E068E282E00E9406
:1014D0006E142AE037ED43E250E40E945E1920E0EA
:1014E00030E040E85AE30E945E1920E030E040E836
:1014F0005FE30E9401188823FCF20E948F08089580
:10150000DD98D59A08958CE291E0DD9A25E82A9538
:10151000F1F70000DD982AE62A95F1F700C001975F
:10152000A1F708950E948F080F2EF6E96F2EF3E0C1
:101530007F2EF02D332433940F2EFFEA8F2EF3E00D
:101540009F2EF02DC5EAD3E00F2EF0EA4F2EF3E0E8
:101550005F2EF02D0E94D2130E94290AF30184818C
:10156000811104C034821382128225C0F30182816A
:101570009381843C9940F8F0F30114824091BC03BC
:101580005091BD036091BE037091BF0380E00E9443
:10159000F1156093C0037093C1038093C2039093CD
:1015A000C3036091B2007091B3008091B400909138
:1015B000B5000E942416F4018481811104C0348294
:1015C000138212821DC0F401828193818C3D95406B
:1015D000B8F0F40114824091B8035091B9036091BE
:1015E000BA037091BB03832D0E94F1156093B20082
:1015F0007093B3008093B4009093B5000E942416BA
:101600008091980090919900009709F49FC02091D3
:10161000AE03211107C03092AE031092AD031092B9
:10162000AC0394C02091AC033091AD032817390767
:1016300008F48CC01092AE03E0909E00F0909F00E2
:101640000091A0001091A1002091A2003091A30070
:101650004091A4005091A500609191027091920276
:1016600080919302909194020E9499017B018C01D8
:10167000A090AA00B090AB00C090AC00D090AD009C
:1016800020917700309178004091790050917A0054
:101690006091C0037091C1038091C2039091C30314
:1016A000E091A900EF93E091A800EF93E091A700EB
:1016B000EF93E091A600EF930E9407026093AE00C3
:1016C0007093AF008093B0009093B100A0906F0032
:1016D000B0907000C0907100D0907200E0907300E4
:1016E000F090740000917500109176002091B20086
:1016F0003091B3004091B4005091B500E0916E007C
:10170000EF93E0916D00EF93E0916C00EF93E09127
:101710006B00EF930E94870220919A0030919B000A
:1017200040919C0050919D000E9468036093B40317
:101730007093B5038093B6039093B7038DB79EB7AC
:1017400008960FB6F8949EBF0FBE8DBF6091B4038C
:101750007091B5038091B6039091B7030E94E7039F
:101760008C81811104C03C821B821A8208C08A814C
:101770009B818838934118F01C820E94FE0FF20171
:101780008481811104C03482138212820BC0F20161
:10179000828193818837910528F014828091BA0064
:1017A0000E94AB0880919503811107C03092950388
:1017B0001092940310929303CDCE80919303909155
:1017C0009403803E9E4208F4C5CE1092950320916A
:1017D000B6003091B7004091B8005091B9006091C7
:1017E000C0037091C1038091C2039091C3030E9412
:1017F0008704B0CE1F920F920FB60F9211242F9331
:101800003F934F935F936F937F938F939F93AF9388
:10181000BF93EF93FF93E6E9F3E08281938104960F
:1018200093838283EBE9F3E082819381049693832F
:101830008283EFEAF3E0828193810496938382832B
:10184000EAEAF3E082819381049693838283E0E85D
:10185000F3E082819381049693838283EBE7F3E044
:1018600082819381049693838283E5EAF3E0828107
:101870009381049693838283E0EAF3E082819381EB
:10188000049693838283E8E0F3E082819381049657
:1018900093838283EAECF3E08281938104969383BD
:1018A000828380918503882319F00E94450802C035
:1018B0000E942208FF91EF91BF91AF919F918F916C
:1018C0007F916F915F914F913F912F910F900FBE3C
:1018D0000F901F9018951F920F920FB60F92112420
:1018E0000F900FBE0F901F9018951F920F920FB67A
:1018F0000F9211242F933F934F935F936F937F9396
:101900008F939F93AF93BF93EF93FF930E945516CE
:10191000FF91EF91BF91AF919F918F917F916F91C7
:101920005F914F913F912F910F900FBE0F901F909D
:1019300018958FEA93E00E94090A8AEA93E00E94D0
:10194000090A85EA93E00E94090A80EA93E00E946E
:10195000090A8BE993E00E94090A86E993E00E9454
:10196000090A81E993E00E94090A089581E993E058
:101970000E94100A86E993E00E94100A8BE993E026
:101980000E94100A80EA93E00E94100A85EA93E020
:101990000E94100A8AEA93E00E94100A8FEA93E0FC
:1019A0000E94100A089581EF91E09093C6038093FE
:1019B000C5030895CF92DF92EF92FF920F931F938A
:1019C00090E0FC013297E332F10508F0C1C2E75123
:1019D000FF4F0C94CB19072E000C880B990B0E941B
:1019E000A91820E030E040E05FE30E945E192091FA
:1019F000A2003091A3004091A4005091A5000E9444
:101A000095176B017C016093A2007093A3008093F3
:101A1000A4009093A50020E030E048E152E40E9449
:101A2000591988236CF080E090E0A8E1B2E480933B
:101A3000A2009093A300A093A400B093A50088C235
:101A400020E030E040E050E4C701B6010E940118F8
:101A500018160CF47DC280E090E0A0E0B0E4809322
:101A6000A2009093A300A093A400B093A50070C21D
:101A7000072E000C880B990B0E94A91820E030E07B
:101A800040E05FE30E945E1920919E0030919F002C
:101A90004091A0005091A1000E9495176B017C011C
:101AA00060939E0070939F008093A0009093A1008C
:101AB00020E030E048E152E40E94591988236CF09C
:101AC00080E090E0A8E1B2E480939E0090939F00B4
:101AD000A093A000B093A1003BC220E030E040E022
:101AE00050E4C701B6010E94011818160CF430C268
:101AF00080E090E0A0E0B0E480939E0090939F008F
:101B0000A093A000B093A10023C2072E000C880B65
:101B1000990B0E94A91820E030E040E05FE30E94AA
:101B20005E199B01AC016091AE007091AF00809195
:101B3000B0009091B1000E9495176093AE00709331
:101B4000AF008093B0009093B10002C2462F64E6CC
:101B500070E080E090E00E94620180936400F8C130
:101B6000462F64E670E081E090E00E94620180937D
:101B70006500EEC1462F64E670E082E090E00E94CE
:101B8000620180936600E4C1462F64E670E083E062
:101B900090E00E94620180936700DAC1462F64E6FC
:101BA00070E084E090E00E94620180936800D0C100
:101BB000462F64E670E085E090E00E946201809329
:101BC0006900C6C1462F64E670E086E090E00E949E
:101BD000620180936A00BCC1072E000C880B990B30
:101BE0000E94A9182DEC3CEC4CEC5DE30E945E19C0
:101BF00020917700309178004091790050917A00DF
:101C00000E9495176B017C016093770070937800B8
:101C10008093790090937A0020E030E040EE50E429
:101C20000E94591918166CF480E090E0A0EEB0E420
:101C30008093770090937800A0937900B0937A0016
:101C400087C120E030E040E05FE3C701B6010E94B9
:101C5000011888230CF07CC180E090E0A0E0BFE395
:101C60008093770090937800A0937900B0937A00E6
:101C70006FC1072E000C880B990B0E94A9182091A8
:101C800073003091740040917500509176000E946D
:101C900095176B017C0160937300709374008093BF
:101CA00075009093760020E030E04AE754E40E940B
:101CB000591918166CF480E090E0AAE7B4E4809318
:101CC000730090937400A0937500B093760040C1A8
:101CD00020E030E0A901C701B6010E940118882365
:101CE0000CF036C1109273001092740010927500BF
:101CF000109276002DC1072E000C880B990B0E94C4
:101D0000A91820916F00309170004091710050919E
:101D100072000E9495176B017C0160936F007093B5
:101D20007000809371009093720020E030E04AE7E9
:101D300054E40E94591918166CF480E090E0AAE768
:101D4000B4E480936F0090937000A0937100B093FF
:101D50007200FEC020E030E0A901C701B6010E9478
:101D6000011888230CF0F4C010926F0010927000DC
:101D70001092710010927200EBC0072E000C880BBD
:101D8000990B0E94A91820916B0030916C00409132
:101D90006D0050916E000E9495176B017C0160935D
:101DA0006B0070936C0080936D0090936E0020E048
:101DB00030E04AE754E40E94591918166CF480E0A8
:101DC00090E0AAE7B4E480936B0090936C00A0933A
:101DD0006D00B0936E00BCC020E030E0A901C701E7
:101DE000B6010E94011888230CF0B2C010926B005B
:101DF00010926C0010926D0010926E00A9C0CB0181
:101E0000770FAA0BBB0B0091890210918A022091D7
:101E10008B0230918C02800F911FA21FB31F8C3355
:101E20009105A105B1054CF48093890290938A0233
:101E3000A0938B02B0938C0211C0E5E8F2E014820B
:101E400015821682178280859185A285B3850196B9
:101E5000A11DB11D80879187A287B38780918902D8
:101E600090918A02A0918B02B0918C02BB23ACF4BA
:101E7000E5E8F2E080859185A285B3850197A10907
:101E8000B10980879187A287B3878BE390E0A0E0B8
:101E9000B0E084839583A683B78380918D0290916F
:101EA0008E02A0918F02B091900288319105A10518
:101EB000B1054CF010928D0210928E0210928F029A
:101EC0001092900245C0BB230CF042C087E190E025
:101ED000A0E0B0E080938D0290938E02A0938F02D9
:101EE000B093900235C0E5E8F2E0CB01770FAA0B82
:101EF000BB0B0485158526853785800F911FA21F92
:101F0000B31F84879587A687B78788309105A10579
:101F1000B1056CF081E090E0A0E0B0E08093910228
:101F200090939202A0939302B093940211C018165A
:101F300019061A061B0664F087E090E0A0E0B0E006
:101F40008093910290939202A0939302B093940293
:101F50001F910F91FF90EF90DF90CF90089522E0B6
:101F60008931920721F09093C6038093C5030895A9
:101F7000813031F0B8F0823081F1853029F1089557
:101F8000E091C503F091C6038085823031F461E0B1
:101F900070E081850E94DA0C0895828193810E940D
:101FA000AF0F0895E091C503F091C603808582309C
:101FB00031F46FEF7FEF81850E94DA0C0895808104
:101FC00091810E94AF0F0895E091C503F091C6037F
:101FD000848195810E94AF0F0895E091C503F0912F
:101FE000C6038085823029F4848195810E94AF0FD9
:101FF0000895868197810E94AF0F0895CF92DF9256
:10200000EF92FF92E091C503F091C603E1858E2F18
:1020100090E0FC013197E432F10508F0DAC2E45FA8
:10202000FE4F0C94CB1920E030E040E05FE360917C
:10203000A2007091A3008091A4009091A5000E943D
:10204000951720E030E048EC52E40E945E190E94AF
:102050007818DC01CB0163E00E949B0761E08EEC05
:1020600092E00E94DD051092BA0010928503B1C281
:1020700020E030E040E05FE36091A2007091A300B7
:102080008091A4009091A5000E94951720E030E077
:1020900048EC52E40E945E190E947818DC01CB01E2
:1020A00063E00E949B0761E08EEC92E00E94DD05F8
:1020B0001092BA0081E0809385038BC220E030E06B
:1020C00040E05FE360919E0070919F008091A000CE
:1020D0009091A1000E94951720E030E048EC52E476
:1020E0000E945E190E947818DC01CB0163E00E9417
:1020F0009B0761E08EEC92E00E94DD051092850363
:1021000081E08093BA0065C220E030E040E05FE308
:1021100060919E0070919F008091A0009091A1001D
:102120000E94951720E030E048EC52E40E945E19CE
:102130000E947818DC01CB0163E00E949B0761E0FC
:102140008EEC92E00E94DD0581E080938503809310
:10215000BA003FC284E08093BA008091C403882310
:1021600049F060E080ED92E00E94CB0681E0809330
:1021700085032FC2C090C003D090C103E090C2037A
:10218000F090C30320E030E0A901C701B6010E942E
:1021900001188823BCF520E030E048EC52ECC70180
:1021A000B6010E945E190E947818DC01CB01883EBE
:1021B00023E09207C8F09C01ADECBCEC0E94D11961
:1021C00060E09695879596958795969587950E9458
:1021D0009B0764E085ED92E00E94DD0561E08EECF6
:1021E00092E00E94DD05F5C163E00E949B0764E078
:1021F00085ED92E00E94DD0561E08EEC92E00E94A8
:10220000DD05E7C120E030E048EC52E4C701B6014B
:102210000E945E190E947818DC01CB0163E00E94E5
:102220009B0761E08EEC92E00E94DD05D2C182E066
:102230008093BA008091C403882349F060E080ED68
:1022400092E00E94CB0681E080938503C2C120E02A
:1022500030E040E05FE36091B2007091B3008091A4
:10226000B4009091B5000E94951720E030E040E264
:1022700051E40E945E190E947818DC01CB0160E0F5
:102280000E949B0761E08EEC92E00E94DD05A1C1F7
:1022900020E030E040E05FE36091AE007091AF007D
:1022A0008091B0009091B1000E94951720E030E03D
:1022B00040E251E40E945E190E947818DC01CB01D3
:1022C00060E00E949B0761E08EEC92E00E94DD05D9
:1022D0001092850383E08093BA007BC160E087EDB4
:1022E00092E00E94CB061092850385E08093BA00AD
:1022F00070C160E08CED92E00E94CB0610928503E5
:1023000086E08093BA0065C164E670E080E090E00A
:102310000E946F0160E00E94CB061092850387E067
:102320008093BA0056C164E670E081E090E00E94BC
:102330006F0160E00E94CB061092850388E08093D5
:10234000BA0047C164E670E082E090E00E946F014D
:1023500060E00E94CB061092850389E08093BA006A
:1023600038C164E670E083E090E00E946F0160E0B5
:102370000E94CB06109285038AE08093BA0029C19F
:1023800064E670E084E090E00E946F0160E00E94EB
:10239000CB06109285038BE08093BA001AC164E6E5
:1023A00070E085E090E00E946F0160E00E94CB0643
:1023B000109285038CE08093BA000BC164E670E054
:1023C00086E090E00E946F0160E00E94CB061092D0
:1023D00085038DE08093BA00FCC064E670E080E085
:1023E00090E00E946F0160E00E94CB0681E0809344
:1023F0008503EFC064E670E081E090E00E946F0129
:1024000060E00E94CB0681E080938503E2C064E631
:1024100070E082E090E00E946F0160E00E94CB06D5
:1024200081E080938503D5C064E670E083E090E0AE
:102430000E946F0160E00E94CB0681E080938503DB
:10244000C8C064E670E084E090E00E946F0160E044
:102450000E94CB0681E080938503BBC064E670E0F8
:1024600085E090E00E946F0160E00E94CB0681E071
:1024700080938503AEC064E670E086E090E00E9441
:102480006F0160E00E94CB0681E080938503A1C0CC
:1024900060E080EE92E00E94CB061092850399C026
:1024A00060E085EE92E00E94CB061092850391C019
:1024B00060E08AEE92E00E94CB061092850389C00C
:1024C00060E08FEE92E00E94CB061092850381C0FF
:1024D00060E084EF92E00E94CB061092850379C001
:1024E00060E089EF92E00E94CB061092850371C0F4
:1024F00020E030E040E251E4609177007091780094
:102500008091790090917A000E945E190E9478185B
:10251000DC01CB0162E00E949B0781E08093850390
:1025200058C0609173007091740080917500909113
:1025300076000E947818DC01CB0160E00E949B07C6
:1025400081E08093850345C060916F0070917000B9
:1025500080917100909172000E947818DC01CB018B
:1025600060E00E949B0781E08093850332C0609108
:102570006B0070916C0080916D0090916E000E94D4
:102580007818DC01CB0160E00E949B0781E080931A
:1025900085031FC0E5E8F2E08085918544E6489F09
:1025A0009001499F300D11248481958163E0820F51
:1025B000931F0E949B0781E0809385030AC060E01F
:1025C00080919102909192020E949B0781E08093FA
:1025D0008503FF90EF90DF90CF90089593988B9AAA
:1025E000949A969A959A979A8C988E988D988F9897
:1025F0000895823071F0853071F0823070F4E0918E
:10260000C503F091C60381E09085923039F480E0F3
:10261000089581E0089581E0089580E00895823072
:1026200060F4109285038091C7039091C8030196CE
:102630009093C8038093C70306C01092C8031092FA
:10264000C7030E94FE0F8091C7039091C803853194
:10265000910528F01092850380E290E00895099793
:1026600028F01092850381E490E0089582E890E0DC
:1026700008951F93CF93DF93FB01208131812115B2
:10268000310529F19091CE03911107C0EAECF3E0F6
:1026900081E08483138212821AC04091CC0350914E
:1026A000CD034217530798F0EB01182F1092CE0379
:1026B0000E94B80F0E94830A0E94FE0F812F0E9481
:1026C0000F1399838883812F0E94F91201C080E043
:1026D000DF91CF911F9108959091C903992339F00B
:1026E000809197008330B9F41092C90308959091B6
:1026F0009700933041F063E272E0892F0E94391312
:102700008093C90308950E940F139093240280932D
:1027100023021092C903089590B39095907184E0BC
:1027200020E030E0903111F43F5F01C02F5F815015
:10273000C9F7231778F190B39095907484E020E066
:1027400030E0903411F43F5F01C02F5F8150C9F732
:10275000231710F190B39095907284E020E030E060
:10276000903211F43F5F01C02F5F8150C9F72317EA
:10277000A8F090B39095907884E020E030E0903815
:1027800011F43F5F01C02F5F8150C9F7231740F05C
:1027900083E0089585E0089580E0089581E008953C
:1027A00082E0089580919F03811107C0EBE9F3E077
:1027B00081E08483138212820CC080919D039091EA
:1027C0009E034E9730F010929F030E948C138093CB
:1027D0009700809197000E946C1308958BB78F77B4
:1027E0008BBF93988B9A94989698959897988C9A73
:1027F0008E9A8D9A8F9A08958AEC93E00E94090A26
:1028000008958AEC93E00E94100A08950F931F9395
:1028100096B196B997B1907F97B9823099F028F424
:10282000882349F0813051F020C08430A9F070F045
:102830008530B1F01AC0D098D89817C0D198D998DF
:10284000389A13C0D298DA98399A0FC0D398DB9887
:1028500087B1836087B909C0D498DC983A9A05C0DB
:10286000D598DD9887B1856087B93D9A86B1856036
:1028700086B93198662319F0613029F006C087B116
:10288000806C87B902C03F983E98379A369A36993D
:10289000FECF84B190E0A0E0B0E045B150E060E050
:1028A00070E0440F551F661F771F440F551F661FAA
:1028B000771F689415F8B595A79597958795169401
:1028C000D1F78A019B01082B192B2A2B3B2BC9011D
:1028D000B8010E94A9181F910F9108959F92AF927D
:1028E000BF92CF92DF92EF92FF920F931F93CF93FD
:1028F000DF93B82E962EA42E062F10E01016110688
:10290000B4F4C0E0D0E0C12CD12C76016A2D8B2D1F
:102910000E9406149B01AC01C701B6010E949517E5
:102920006B017C012196C017D10781F703C0C12C30
:10293000D12C7601692D70E080E090E00E94A7180C
:102940009B01AC01C701B6010E940618DF91CF912F
:102950001F910F91FF90EF90DF90CF90BF90AF90BD
:102960009F900895AF92BF92CF92DF92EF92FF9225
:102970000F931F93CF93DF936B017C018A01E901D1
:102980009B01AC01F80160817181828193810E9479
:10299000591918160CF43EC0FE01E150F04CEE0F30
:1029A000FF1FEE0FFF1FE00FF11F208131814281D9
:1029B0005381C701B6010E945919882344F45E016E
:1029C000F2E0AF1AB10832F480E090E027C0CE0107
:1029D000029724C0C0E0D0E0F801219131914191EB
:1029E00051918F01C701B6010E94591988235CF0EB
:1029F000F8012081318142815381C701B6010E94D3
:102A00000118882354F02196AC16BD062CF780E0FF
:102A100090E004C080E090E001C0CE01DF91CF9152
:102A20001F910F91FF90EF90DF90CF90BF90AF90EC
:102A300008954F925F926F927F92AF92BF92CF9222
:102A4000DF92EF92FF920F931F93CF93DF93CDB757
:102A5000DEB72C970FB6F894DEBF0FBECDBF2B01AB
:102A60003C012D833E834F835887E982FA820B8392
:102A70001C839B01AC01C801B7010E9401188111A0
:102A800009C05091AA004091AB003091AC00209158
:102A9000AD0036C0A30192016D8D7E8D8F8D98A102
:102AA0000E94941769877A878B879C872D813E8146
:102AB0004F815885C601B5010E9494176B017C01B6
:102AC000A301920169817A818B819C810E94941774
:102AD0009B01AC01C701B6010E9406189B01AC0125
:102AE00069857A858B859C850E945E192D813E8142
:102AF0004F8158850E949517562F472F382F292F21
:102B0000652F742F832F922F2C960FB6F894DEBF6B
:102B10000FBECDBFDF91CF911F910F91FF90EF902E
:102B2000DF90CF90BF90AF907F906F905F904F906D
:102B300008954F925F926F927F928F929F92AF9281
:102B4000BF92CF92DF92EF92FF920F931F93CF939A
:102B5000DF93962E872E782E692E2A01E9012CE02C
:102B600030E00E94B2140196880F991F880F991FB8
:102B7000BC0164507109FE01E80FF91FA080B1800B
:102B8000C280D380F201E80FF91FE080F18002815A
:102B90001381C60FD71F288139814A815B81F201D9
:102BA000E60FF71F60817181828193816F927F921E
:102BB0008F929F920E9419150F900F900F900F9077
:102BC000DF91CF911F910F91FF90EF90DF90CF9009
:102BD000BF90AF909F908F907F906F905F904F903D
:102BE0000895CF92DF92EF92FF920F931F936A01A5
:102BF0007B0141E064E60E946E149B01AC0160E041
:102C00007CEF8CE39BE40E94061823E333E343E864
:102C100050E40E94061820E030E648E355E40E94A4
:102C200094170CE010E025E532E045E252E00E9406
:102C30009915A70196010E9495171F910F91FF907A
:102C4000EF90DF90CF900895CF92DF92EF92FF92B6
:102C50006B017C0120E030E040EF52E40E94591902
:102C6000181654F020E030E040E252ECC701B60103
:102C70000E940118882324F481E08093C40302C0D9
:102C80001092C403FF90EF90DF90CF9008958EB51F
:102C900083608EBD8EB588608EBD1BBC8AEF8ABDF9
:102CA00089B7806189BF7894089580918502909159
:102CB0008602A0918702B09188020196A11DB11DE4
:102CC0008C339105A105B1054CF480938502909356
:102CD0008602A0938702B09388020895E5E8F2E0A7
:102CE000108211821282138284819581A681B7811C
:102CF0000196A11DB11D8C339105A105B1054CF4C0
:102D00008093890290938A02A0938B02B0938C02E5
:102D10000895E5E8F2E01482158216821782808514
:102D20009185A285B3850196A11DB11D88319105BC
:102D3000A105B1054CF480938D0290938E02A0936F
:102D40008F02B09390020895E5E8F2E010861186B4
:102D50001286138644855585668577854F5F5F4F5C
:102D60006F4F7F4F44875587668777878089918922
:102D7000A289B3890196A11DB11D808B918BA28B75
:102D8000B38B483051056105710564F041E050E0B6
:102D900060E070E04093910250939202609393023E
:102DA000709394028D319105A105B10589F580914B
:102DB000990290919A02A0919B02B0919C02029775
:102DC000A105B10509F08EC080919D0290919E02EF
:102DD000A0919F02B091A00283709927AA27BB27D8
:102DE000892B8A2B8B2B09F49EC0E5E8F2E081E069
:102DF00090E0A0E0B0E0808B918BA28BB38B83E05E
:102E000090E0A0E0B0E0848B958BA68BB78B089503
:102E10008E319105A105B10501F58091990290913E
:102E20009A02A0919B02B0919C020297A105B10564
:102E300009F058C0E5E8F2E081E090E0A0E0B0E001
:102E4000808B918BA28BB38B83E090E0A0E0B0E00D
:102E5000848B958BA68BB78B08958F319105A10537
:102E6000B10539F58091990290919A02A0919B0247
:102E7000B0919C02AC01BD014D7F4430510561050C
:102E8000710529F0493051056105710559F5E5E8ED
:102E9000F2E041E050E060E070E0408B518B628BEB
:102EA000738B0196A11DB11D848B958BA68BB78B5F
:102EB00008958097A105B105ACF0E5E8F2E081E066
:102EC00090E0A0E0B0E0808B918BA28BB38B8489E3
:102ED0009589A689B7890196A11DB11D848B958B13
:102EE000A68BB78B8091990290919A02A0919B0238
:102EF000B0919C020D97A105B105ACF0E5E8F2E0B8
:102F000081E090E0A0E0B0E0848B958BA68BB78B3E
:102F1000808D918DA28DB38D0196A11DB11D808FE5
:102F2000918FA28FB38F08955058BB27AA270E9474
:102F3000AC170C941F190E94111938F00E9418192F
:102F400020F039F49F3F19F426F40C940E190EF476
:102F5000E095E7FB0C940819E92F0E94301958F30B
:102F6000BA17620773078407950720F079F4A6F56E
:102F70000C9452190EF4E0950B2EBA2FA02D0B01D4
:102F8000B90190010C01CA01A0011124FF27591BAE
:102F900099F0593F50F4503E68F11A16F040A22FB4
:102FA000232F342F4427585FF3CF46953795279525
:102FB000A795F0405395C9F77EF41F16BA0B620B24
:102FC000730B840BBAF09150A1F0FF0FBB1F661F6B
:102FD000771F881FC2F70EC0BA0F621F731F841FAE
:102FE00048F4879577956795B795F7959E3F08F0D4
:102FF000B0CF9395880F08F09927EE0F9795879596
:1030000008950E94E41808F481E008950E941A18B7
:103010000C941F190E94181958F00E94111940F0C1
:1030200029F45F3F29F00C94081951110C9453199D
:103030000C940E190E94301968F39923B1F35523AB
:1030400091F3951B550BBB27AA27621773078407BB
:1030500038F09F5F5F4F220F331F441FAA1FA9F351
:1030600035D00E2E3AF0E0E832D091505040E6953F
:10307000001CCAF72BD0FE2F29D0660F771F881FA0
:10308000BB1F261737074807AB07B0E809F0BB0B93
:10309000802DBF01FF2793585F4F3AF09E3F5105A7
:1030A00078F00C9408190C9453195F3FE4F3983EA0
:1030B000D4F3869577956795B795F7959F5FC9F790
:1030C000880F911D9695879597F90895E1E0660F11
:1030D000771F881FBB1F621773078407BA0720F08A
:1030E000621B730B840BBA0BEE1F88F7E0950895F3
:1030F0000E94381988F09F5798F0B92F9927B75137
:10310000B0F0E1F0660F771F881F991F1AF0BA958B
:10311000C9F714C0B13091F00E945219B1E008957E
:103120000C945219672F782F8827B85F39F0B93F70
:10313000CCF3869577956795B395D9F73EF490953E
:103140008095709561957F4F8F4F9F4F0895E894BC
:1031500009C097FB3EF490958095709561957F4FDF
:103160008F4F9F4F9923A9F0F92F96E9BB2793958D
:10317000F695879577956795B795F111F8CFFAF49D
:10318000BB0F11F460FF1BC06F5F7F4F8F4F9F4FCE
:1031900016C0882311F096E911C0772321F09EE82C
:1031A000872F762F05C0662371F096E8862F70E092
:1031B00060E02AF09A95660F771F881FDAF7880F6C
:1031C0009695879597F90895990F0008550FAA0BC2
:1031D000E0E8FEEF16161706E807F907C0F012162A
:1031E0001306E407F50798F0621B730B840B950B2D
:1031F00039F40A2661F0232B242B252B21F4089582
:103200000A2609F4A140A6958FEF811D811D08951E
:1032100097F99F6780E870E060E008959FEF80EC89
:10322000089500240A94161617061806090608952C
:1032300000240A9412161306140605060895092E92
:103240000394000C11F4882352F0BB0F40F4BF2B01
:1032500011F460FF04C06F5F7F4F8F4F9F4F089541
:1032600057FD9058440F551F59F05F3F71F0479537
:10327000880F97FB991F61F09F3F79F0879508951C
:10328000121613061406551FF2CF4695F1DF08C03B
:10329000161617061806991FF1CF86957105610558
:1032A00008940895E894BB2766277727CB0197F900
:1032B00008950E94E41808F48FEF08950E94711990
:1032C0000C941F190E94111938F00E94181920F04F
:1032D000952311F00C9408190C940E1911240C94D8
:1032E00053190E94301970F3959FC1F3950F50E068
:1032F000551F629FF001729FBB27F00DB11D639FA8
:10330000AA27F00DB11DAA1F649F6627B00DA11D4D
:10331000661F829F2227B00DA11D621F739FB00DF3
:10332000A11D621F839FA00D611D221F749F332763
:10333000A00D611D231F849F600D211D822F762FFC
:103340006A2F11249F5750409AF0F1F088234AF0D9
:10335000EE0FFF1FBB1F661F771F881F9150504045
:10336000A9F79E3F510580F00C9408190C9453194D
:103370005F3FE4F3983ED4F3869577956795B795CC
:10338000F795E7959F5FC1F7FE2B880F911D9695E6
:10339000879597F90895EE0FFF1F0590F491E02DA2
:1033A0000994A29FB001B39FC001A39F700D811D1E
:1033B0001124911DB29F700D811D1124911D08953E
:1033C0000E94D119A59F900DB49F900DA49F800DD0
:1033D000911D1124089511E0C4E3D1E004C0FE0161
:1033E0000E94CB192196C833D107C9F7F894FFCFB3
:1033F0000000A04106010203000506000000400095
:1034000000803F000020420000C03F3F065B4F6647
:103410006D7D077F6F5C73545E6E7879503806005F
:10342000773D6D393E406303B80B00606A4700008A
:1034300088410000A0410000F0410000AA420000C5
:10344000484200007042000088410219021902F748
:10345000001902022419021902010119020223199A
:103460000219020B0119020222190219021501198F
:10347000020221190219021F011902022019021960
:103480000229011902021E29010101D301BB00001A
:103490001DF7000B01D301C500001C01011501D36C
:1034A00001CF00001B0B011F01D301D900001A1529
:1034B000012901D301E30000191F01F700D301ED39
:1034C00000001819021902790119020217190219CC
:1034D00002830119020216190219028D0119020252
:1034E000151902190297011902021419021902A1F1
:1034F000011902021319021902AB01190202121971
:10350000021902B50119020211B5018301DD01336F
:1035100001001079018D01DD013D01000F8301974C
:1035200001DD014701000E8D01A101DD0151010006
:103530000D9701AB01DD015B01000CA101B501DDBF
:10354000016501000BAB017901DD016F01000A1972
:10355000021902050219020204190219020F0219C6
:103560000202020F02DD01F10129010009D301E786
:1035700001F101B5010008DD01F101F101190200BD
:1035800007E701FB01190219020006F1010502F12A
:103590000119020005FB010F02F101BF0100030543
:1035A00002D301F101C90100010000000000000088
:1035B00000010082000080AB4400E0BA4400C0CBB0
:1035C000440080DD440040F0440000024500500CFF
:1035D00045001017450050224500102E4500403A86
:1035E0004500E046450000A0C1000020C1000000E9
:1035F00000000020410000A0410000F04100002038
:1036000042000048420000704200008C420000A0CE
:10361000420000B442000000000000000000000072
:1036200000010000001800000003000000DF070098
:1036300000703120200070322020007033202000E4
:10364000703420200070352020007036202000705B
:1036500037202000703820200070392020002A00F8
:1036600065727220002D0070726F670073657400C0
:103670002063757200707069640069706964006429
:0E36800070696400636C6F6300206461790000
:00000001FF
